:10000000A3C10000C9C10000C7C10000C5C10000F4
:10001000C3C10000C1C10000BFC10000BDC10000DC
:10002000BBC10000B9C100000C94770D0C94090EFF
:10003000B3C10000B1C10000AFC10000ADC10000FC
:10004000ABC10000A9C10000A7C10000A5C100000C
:10005000A3C10000A1C100009FC100000C946A0C64
:100060009BC100000C94C5100C94EC100C94191159
:1000700093C1000091C100008FC100008DC100003C
:100080008BC1000089C1000087C1000085C100004C
:1000900083C1000081C100007FC100007DC100005C
:1000A0007BC1000079C1000077C100000123022359
:1000B0000423082380230129022904290829402632
:1000C000802640298029102320234023802F402F81
:1000D000202F102F022F012F10292029402C000142
:1000E00000002303120002000064018D00220000C2
:1000F000E4023F0021000076010900220100120203
:1001000055002101008F010900220200F1012100A8
:10011000210200A801090022030067025500210303
:1001200000C8010900220400BC022800210400E1EB
:100130000109000300006001040103090440011EDD
:100140001E034A00560053007900200049006E004B
:1001500074006500720066006100630065000000C5
:100160000403090409028D00050100C032090400DE
:10017000000103000000092111010001223F0007D6
:1001800005830310000109040200020300000009B6
:100190002111010001222100070581034000010710
:1001A0000502032000020904010001030000000908
:1001B00021110100012255000705850310000209E5
:1001C0000403000103000000092111010001225570
:1001D0000007058403100002090404000103000065
:1001E00000092111010001222800070586030800EB
:1001F0000406C9FF0904A15C7508150026FF0095D7
:10020000400975810295200976910295040976B11D
:1002100002C005010904A101150025017501952001
:100220000509190129208102150025073500463BE3
:10023000017504950165140501093981420501091B
:1002400001A100150026FF03750A95040930093144
:10025000093209358102C0150026FF03750A95028F
:10026000093609368102C005010904A101150025DE
:100270000175019520050919012920810215002524
:10028000073500463B0175049501651405010939E0
:10029000814205010901A100150026FF03750A9599
:1002A0000409300931093209358102C0150026FFE1
:1002B00003750A9502093609368102C0050C090149
:1002C000A101750A950419002A9C021500269C02BA
:1002D0008100050175089503190029B7150026B797
:1002E000008100C005010906A101050719E029E701
:1002F00015002501750195088102050819012905D8
:100300007501950591027503950191030507190083
:100310002967150025017501956881027508950208
:100320008103C01201000200000040C01682047167
:100330000200010001C136C026C116C116C116C196
:1003400006009A0A3311AB1411241FBECFEFDAE076
:10035000DEBFCDBF11E0A0E0B1E0ECE4FAE202C004
:1003600005900D92A03AB107D9F722E0A0EAB1E0DA
:1003700001C01D92A735B207E1F711E0C4EAD1E050
:1003800004C02197FE010E940A15C13AD107C9F79E
:100390000E94BC120C94241533CEFB010190002066
:1003A000E9F73197AF01461B570BDC01ED91FC914A
:1003B0000280F381E02D0994FA01AB01770F660BFF
:1003C000770BEA30F10511F40C94E811E11108C043
:1003D000DC01ED91FC910190F081E02D642F0994F6
:1003E000EA3011F0E13019F420E00C948611E0318C
:1003F00011F40C94F411E23011F40C942F122E2FFE
:100400000C9463120F931F93CF93DF93EC01C5DF1E
:100410008C01CE010E946C11800F911FDF91CF9152
:100420001F910F910895FC016150862F877021E084
:1004300030E001C0220F8A95EAF7442371F1683059
:1004400058F4A381B4818C91282B2C938581811140
:1004500048C0CF010C949D13603148F4A381B4814E
:1004600011968C911197282B11962C93EFCF683110
:1004700048F4A381B48112968C911297282B12967E
:100480002C93E4CF603210F7A381B48113968C9142
:100490001397282B13962C93D9CF2095683028F4E6
:1004A000A381B4818C912823D0CF603138F4A3810B
:1004B000B48111968C9111972823D6CF683138F4E6
:1004C000A381B48112968C9112972823D8CF6032E1
:1004D00008F0BCCFA381B48113968C911397282385
:1004E000D9CF0895FC01611584E0780710F06FEF13
:1004F00073E0A381B48114969C9114979F70862F0A
:100500008295807F982B14969C93A381B481159635
:100510009C911597907C84E0769567958A95E1F794
:10052000692B15966C938581811103C0CF010C94C2
:100530009D130895FC01611584E0780710F06FEFBA
:1005400073E0A381B48115969C9115979F73862FB4
:100550008295880F880F807C982B15969C93A38199
:10056000B481769567957695679516966C93858197
:10057000811103C0CF010C949D130895FC0176876F
:100580006587128211821482138211861286138665
:100590001486108215821682108617821092A2018C
:1005A0001092A0011092A1015198599A5098589A0E
:1005B00027982F9A89B18695817091E08927809339
:1005C000A20189B1809581708093A10183B180954A
:1005D000881F8827881F8093A00108959F92AF925B
:1005E000BF92CF92DF92EF92FF920F931F93CF9320
:1005F000DF93EC01962E7A0169018D859E85DC01E1
:10060000ED91FC910190F081E02D60EE09958D85D2
:100610009E85DC01ED91FC910190F081E02D692D2A
:1006200009958D859E8511E01C0DDC01ED91FC91F5
:100630000190F081E02D612F0995910E8701A12C89
:10064000BB24B3948D859E85DC01ED91FC910190D6
:10065000F081E02D98012E193F092C153D059CF4E1
:10066000D8016D918D010995F80131972081892D6F
:10067000990C990B820F911D27FD9A95B5010E9447
:10068000D514982EDFCF692D09958D859E85DC01C7
:10069000ED91FC910680F781E02DDF91CF911F91C4
:1006A0000F91FF90EF90DF90CF90BF90AF909F9011
:1006B0000994CF93DF9300D0CDB7DEB720EF298325
:1006C00029ED2A8322E030E0AE014F5F5F4F6FEFEC
:1006D00085DF64EF71E080E090E00E94AA0C8091D9
:1006E000A201882329F06EE071E08CE492E08ADEBA
:1006F0008091A101882329F060E271E08CE492E00E
:1007000081DE8091A001882329F061E371E08CE40F
:1007100092E078DE66E471E08CE492E073DE0F90A4
:100720000F90DF91CF9108952F923F924F925F9259
:100730006F927F928F929F92AF92BF92CF92DF92F1
:10074000EF92FF920F931F93CF93DF93CDB7DEB756
:1007500064970FB6F894DEBF0FBECDBF7C0187E073
:10076000E7E0F1E0DE01119601900D928A95E1F744
:1007700027E030E0AE014F5F5F4FC7012FDFD701A9
:100780001D968D919C91DC01ED91FC910084F18589
:10079000E02D0995892B99F3F70185859685DC0174
:1007A000ED91FC910284F385E02D0995803E910541
:1007B00099F7F70185859685DC01ED91FC9102841E
:1007C000F385E02D09959F878E87892B91F7F70197
:1007D00085859685DC01ED91FC910084F185E02D05
:1007E0000995892BA1F3F70185859685DC01ED91AB
:1007F000FC910284F385E02D09959B8B8A8BF70190
:10080000F581FC8B62E28BE492E00E941C1369E2AA
:100810008BE492E00E941C136BE28BE492E00E9456
:100820001C1363E18BE492E00E941C1368E28BE4EA
:1008300092E00E941C1363E28BE492E00E941C137E
:100840006EE18BE492E00E941C1340E069E08FE3CC
:1008500092E0E9DD198A188A1D861C86A12C42E0E7
:10086000B42EC12C52E0D52E412C62E0562E212C04
:1008700072E0372E01E02C853D858A899B892817F7
:1008800039070CF0A7C4D7011D968D919C91DC010E
:10089000ED91FC910084F185E02D0995892B99F368
:1008A000F70185859685DC01ED91FC910284F38545
:1008B000E02D0995782E182F6AE571E08CE492E01E
:1008C0006CDD672D072C000C770B40E150E08CE4C9
:1008D00092E072DD6AE571E08CE492E05EDD872DE6
:1008E000072C000C990BAA0BBB0B88879987AA874A
:1008F000BB87AC01BD018CE492E00E94E811AC859D
:10090000BD8512974D0188859985AA85BB85803D57
:100910009F4FAF4FBF4FE1F0F2E18F16910408F007
:1009200091C0F401EA56FB4F0C940A15D204D90485
:10093000E5059606460722052205F2072205490825
:1009400022059E082205B4082205C6082205DA08F9
:10095000D7011D968D919C91DC01ED91FC91028453
:10096000F385E02D09958F3D9105B1F692E1891649
:10097000910408F067C0F401E054FB4F0C940A1591
:1009800039054105E4059506450722052205F107CD
:100990002205480822059D082205B3082205C5083E
:1009A0002205D90877FE67C06BE38BE492E00E94D2
:1009B0000E13812F881F8827881FF7018583FC89E4
:1009C0008F1789F017FD65C0D70116968C9181119C
:1009D00060C08091A001882309F455C041E069E01E
:1009E0008FE392E020DDF12FF2709F2ED701159654
:1009F0008C91882309F450C0FF2339F062E28BE424
:100A000092E00E944413F701068312FF08C06BE2D4
:100A10008BE492E00E944413D70116960C9313FFC7
:100A200007C068E28BE492E00E944413F70106835A
:100A300014FF08C063E18BE492E00E944413D701E5
:100A400016960C938C859D8501969D878C87809149
:100A5000A201811105C08091A001882309F40BCF68
:100A60008FE392E00E949D1385E492E00E949D1323
:100A700002CF10EE99CF6BE38BE492E00E94141347
:100A800098CF10EE96CF6EE18BE492E00E94441373
:100A9000AACFF7011682A7CF8091A001B12FB17024
:100AA0008B2E882351F141E0F11101C040E061E05B
:100AB0008FE392E0B8DC482D62E08FE392E0B3DC94
:100AC00012FF04C0E1E02E1AEEEF3E0A13FF02C04F
:100AD000F2E03F1AB1018FE392E004DD14FF04C09D
:100AE00021E0421A2EEF520A15FF02C032E0531ADB
:100AF000B2018FE392E01EDDA5CF8091A201882391
:100B000071F041E0F11101C040E061E08FE392E05B
:100B10008ADC482D62E08FE392E085DC93CF812F61
:100B20008074782E16FF38C066E28BE492E00E9453
:100B30000E1361E08BE492E09920A1F10E940E1364
:100B400064E08BE492E0882081F10E940E136FE450
:100B50008BE492E012FF2CC00E94441360E58BE40A
:100B600092E013FF28C00E94441361E58BE492E0F9
:100B700014FF24C00E94441362E58BE492E015FF49
:100B800020C00E94441366E28BE492E0772009F4CF
:100B9000B7C00E940E1356CF67E28BE492E00E942A
:100BA0001413C7CF0E941413CBCF0E941413CFCFBE
:100BB0000E941C13D3CF0E941C13D7CF0E941C137A
:100BC000DBCF0E941C13DFCF10EED70115968C915E
:100BD000882351F017FF36CF69E28BE492E00E9440
:100BE0004413F70106832ECFF12FF4708F2E212F9F
:100BF0002870722E312F3071632E812F807288877A
:100C0000912F9074992E8091A2018823F1F041E0F8
:100C1000F11101C040E068E08FE392E004DC41E0C4
:100C2000711001C040E067E08FE392E0FCDB41E03F
:100C3000611001C040E066E08FE392E0F4DB41E048
:100C4000A885A11122C040E020C08091A001882386
:100C500071F141E0F11101C040E068E08FE392E002
:100C6000E2DB41E0711001C040E067E08FE392E019
:100C7000DADB41E0611001C040E066E08FE392E022
:100C8000D2DB41E0B885BB23F1F265E08FE392E06F
:100C9000CADB41E0911001C040E064E08FE392E0E4
:100CA000C2DB412F441F4427441F63E034CFE88553
:100CB0006DE18BE492E0EE2331F10E9444136BE18D
:100CC0008BE492E0662011F10E94441366E08BE40D
:100CD00092E07720F1F00E9444138820E9F066E06A
:100CE0008BE492E00E9444136CE28BE492E017FFE5
:100CF00019C00E94441362E08BE492E0911049CF46
:100D00000E9414139FCE0E941C13D9CF0E941C1363
:100D1000DDCF0E941C13E1CF69E08BE492E00E94DA
:100D20001C13E2CF0E941C13E6CF10EED7011596DC
:100D30008C91882309F43CC017FF07C069E28BE45B
:100D400092E00E944413F7010683812F82709091F4
:100D5000A001F12FF1709F2E992309F441C041E0C9
:100D6000811101C040E061E085E492E05CDB492D47
:100D700062E085E492E057DB12FF04C021E0C21A72
:100D80002EEFD20A13FF02C032E0D31AB60185E477
:100D900092E0A8DB14FF04C081E0A81A8EEFB80A25
:100DA00015FF02C092E0B91AB50185E492E0A3CE26
:100DB0008091A001882349F0412F441F4427441FFC
:100DC00069E085E492E02FDBC0CF6FE18BE492E035
:100DD00017FF03C00E944413B8CF0E941C13B5CF65
:100DE0009091A201992369F041E0811101C040E096
:100DF00061E085E492E017DB492D62E085E492E052
:100E00008CCE64E0882369F18BE492E00E94441365
:100E100066E18BE492E0992049F10E9444136AE074
:100E20008BE492E012FF25C00E94441367E08BE43C
:100E300092E013FF21C00E94441369E08BE492E02A
:100E400014FF1DC00E94441365E18BE492E015FF7E
:100E500019C00E94441367E28BE492E016FF50CF62
:100E600098CE8BE492E00E941C13D2CF0E941C13F8
:100E7000D6CF0E941C13DACF0E941C13DECF0E9433
:100E80001C13E2CF0E941C13E6CF10EEA12FA4701A
:100E90009A2EB12FB8708B2EE12FE0726E2EF12FAB
:100EA000F074F887212F2071722E8091A001882381
:100EB00031F141E0A11101C040E068E085E492E039
:100EC000B2DA41E0811001C040E067E085E492E0E1
:100ED000AADA41E0711001C040E066E085E492E0EA
:100EE000A2DA41E0611001C040E065E085E492E0F3
:100EF0009ADA41E0388531112AC040E028C080915B
:100F0000A201882371F141E0A11101C040E068E035
:100F100085E492E088DA41E0811001C040E067E0BA
:100F200085E492E080DA41E0711001C040E066E0C3
:100F300085E492E078DA41E0611001C040E065E0CC
:100F400085E492E070DA41E088858823B1F264E0BC
:100F500085E492E068DA412F441F4427441F63E090
:100F60004DCF64E18BE492E017FF27C00E94441349
:100F700098856AE1992321F18BE492E00E94441361
:100F80006CE08BE492E0662001F10E9444136EE075
:100F90008BE492E07720E1F00E9444136DE08BE453
:100FA00092E08820C1F00E9444136FE08BE492E04D
:100FB0009920A1F00E94441345CD0E941C13D8CF64
:100FC0008BE492E00E941C13DBCF0E941C13DFCF46
:100FD0000E941C13E3CF0E941C13E7CF0E941C1336
:100FE00031CD10EE412F110F550BD70111968D9178
:100FF0009C91129784179507F4F412965C934E9384
:1010000011970FB6F8948091C1019091C201A091FF
:10101000C301B091C4010FBEF70181879287A387F6
:10102000B48762E28BE492E00E94441321E030E056
:101030003F872E8707CDEE85FF85EF2B11F7199699
:101040004D915D916D917C911C9741155105610504
:10105000710509F4F7CC0FB6F8948091C101909115
:10106000C201A091C301B091C4010FBE841B950BB6
:10107000A60BB70BC397A105B10508F4E3CCF701A4
:10108000118612861386148662E28BE492E092CF78
:1010900010EE412F110F550BD70113968D919C9196
:1010A000149784179507F4F414965C934E93139752
:1010B0000FB6F8948091C1019091C201A091C30133
:1010C000B091C4010FBEF70181879287A387B487CF
:1010D00063E28BE492E00E94441321E030E0398B1C
:1010E000288BB0CCE889F989EF2B11F719964D912F
:1010F0005D916D917C911C974115510561057105BC
:1011000009F4A0CC0FB6F8948091C1019091C2016E
:10111000A091C301B091C4010FBE841B950BA60B17
:10112000B70BC397A105B10508F48CCCF701118664
:1011300012861386148663E2A8CF10EE8091A20176
:10114000882309F47FCC812F012E000C990B17FD09
:1011500093951C01220C331C220C331CB1018FE32C
:1011600092E0C0D96FCC10EE8091A201882309F4DF
:1011700069CC812F012E000C990B17FD93952C0142
:10118000440C551C440C551CB3CC10EE8091A201AC
:10119000882309F457CCC12E012E000CDD0817FD61
:1011A000D394CC0CDD1CCC0CDD1CB60185E492E0A4
:1011B000D8CF10EE8091A201882309F443CCA12E50
:1011C000012E000CBB0817FDB394AA0CBB1CAA0C83
:1011D000BB1CEACD8BE492E00E946E136AE070E0E3
:1011E00080E090E0B7D364960FB6F894DEBF0FBEF0
:1011F000CDBFDF91CF911F910F91FF90EF90DF90C6
:10120000CF90BF90AF909F908F907F906F905F90A6
:101210004F903F902F900895AF92BF92CF92DF9260
:10122000EF92FF920F931F93CF93DF93EC01D6D9E8
:101230008D859E85DC01ED91FC910084F185E02D8A
:101240000995892BA9F38D859E85DC01ED91FC9193
:101250000284F385E02D0995803E9105A1F78D85E7
:101260009E85DC01ED91FC910284F385E02D0995CA
:101270007C01892BA1F78D859E85DC01ED91FC9188
:101280000084F185E02D0995892BA9F38D859E8534
:10129000DC01ED91FC910284F385E02D09956C0150
:1012A0006CE471E08CE492E078D840E150E0B60163
:1012B0008CE492E081D8C601880F991F4FD15C0160
:1012C0008C01EC14FD046CF58D859E85DC01ED919F
:1012D000FC910084F185E02D0995892BA9F38D857A
:1012E0009E85DC01ED91FC910284F385E02D09954A
:1012F000082E000C990BF801819391938F016AE5F8
:1013000071E08CE492E049D8F801329760817181F4
:1013100040E150E08CE492E04FD8FFEFEF1AFF0A73
:10132000D0CF8CE492E0D8D768EC70E080E090E019
:1013300011D3C501DF91CF911F910F91FF90EF90D5
:10134000DF90CF90BF90AF900895FF920F931F93BF
:10135000CF93DF9300D000D000D01F92CDB7DEB77F
:101360008C01F62E6CE571E08CE492E04BD881EFB5
:101370008983FA8222E030E0AE014F5F5F4F6FEF6A
:10138000C8014ADF61E671E08CE492E03BD880E17D
:101390008F8321E030E0AE01495F5F4F6F2DC801C0
:1013A0003BDF65E671E08CE492E02CD881E18E832E
:1013B00021E030E0AE014A5F5F4F6F2DC8012CDFA6
:1013C00069E671E08CE492E01DD882E18D8321E032
:1013D00030E0AE014B5F5F4F6F2DC8011DDF6DE642
:1013E00071E08CE492E00ED883E18C8321E030E060
:1013F000AE014C5F5F4F6F2DC8010EDF61E771E0FA
:101400008CE492E00E94020284E18B8321E030E0D0
:10141000AE014D5F5F4F6F2DC801FEDE5E9881E02B
:10142000F801808327960FB6F894DEBF0FBECDBFBC
:10143000DF91CF911F910F91FF90089590E080E090
:10144000089540E052EC61E070E08CE492E00E948C
:101450000C1441E161E170E086EB91E05DD681E042
:101460008093440280934A0268EB7BE080E090E046
:1014700071D245E050E065E771E08CE492E004D77A
:101480008CE492E029D7569A5E9A8091A701811147
:1014900009C087EA91E00DD961E070E087EA91E048
:1014A00054DFF3CF0FB6F8948091C1019091C2013F
:1014B000A091C301B091C4010FBE8093A30190938A
:1014C000A401A093A501B093A60108950F931F93C3
:1014D0000FB6F8948091C1019091C201A091C3010F
:1014E000B091C4010FBE4091A3015091A40160913D
:1014F000A5017091A6018C019D01041B150B260B03
:10150000370BB901A801443151056105710578F027
:101510008093A3019093A401A093A501B093A60189
:1015200061E070E087EA91E01F910F91FDC81F9183
:101530000F910895E6EBF1E0128288EE93E0A0E0CF
:10154000B0E083839483A583B68317828FE791E00D
:1015500091838083BF0187EA91E010C80F931F93A6
:10156000CF93DF938230910510F482E090E0E09118
:101570005502F091560230E020E0B0E0A0E0309754
:1015800099F42115310509F44AC0281B390B243080
:101590003105D8F58A819B816115710589F1FB01BF
:1015A00093838283FE0111C04081518102811381A6
:1015B00048175907E0F04817590799F4109761F058
:1015C00012960C93129713961C933296CF01DF91CB
:1015D000CF911F910F9108950093550210935602D9
:1015E000F4CF2115310551F04217530738F0A90106
:1015F000DB019A01BD01DF01F801C1CFEF01F9CF95
:101600009093560280935502CDCFFE01E20FF31F57
:10161000819391932250310939832883D7CF209128
:10162000BE013091BF01232B41F420910201309182
:1016300003013093BF012093BE012091000130913E
:1016400001012115310541F42DB73EB74091040148
:1016500050910501241B350BE091BE01F091BF01B3
:10166000E217F307A0F42E1B3F0B2817390778F079
:10167000AC014E5F5F4F2417350748F04E0F5F1FD8
:101680005093BF014093BE01819391939FCFF0E0AF
:10169000E0E09CCF1DBA109268001CBC10BE1FBABF
:1016A00010927A0010926E0010926F0010927100EA
:1016B000109272001092C900ECEBF0E0108214B8A6
:1016C00017B81AB81DB810BA108215B818B81BB8D8
:1016D0001EB811BA0895F894E1E6F0E020E82083FE
:1016E000108283E084BD85BDEEE6F0E080818160FC
:1016F000808381E08093800092E0909381008093CA
:101700009000909391009093C00094E09093C1005A
:101710008093C2008093C3001092C40086E8809337
:101720007A0020937B0010927E0010927D0051D1B0
:1017300078940895893170F4ECEAF0E0880FE80FAE
:10174000F11D2591E491F0E09FB7F8948181822BFF
:1017500081839FBF0895E93150F4EE0FE854F44FB0
:101760000994E93120F4EE0FE651F44F09940895FD
:10177000289A0895299A08952A9A08952B9A0895E7
:101780002F9A6AC0589A58C0599A08955A9A08953B
:101790005B9A0895469A66C0479A6AC05E9A089511
:1017A0005F9A6CC02C9A08952D9A4AC02E9A4EC00A
:1017B0008F9A08958E9A08958D9A08958C9A089517
:1017C000899A0895889A08955C9A08955D9A089573
:1017D000769A089528980895299808952A98089542
:1017E0002B9808952F9838C0589826C05998089576
:1017F0005A9808955B980895469834C0479838C021
:101800005E9808955F983AC02C9808952D9818C056
:101810002E981CC08F9808958E9808958D980895DD
:101820008C98089589980895889808955C980895EB
:101830005D98089576980895E4B5EF7DE4BD089528
:10184000E0918000EF77E09380000895E0918000C0
:10185000EF7DE09380000895E0918000E77FE093C2
:1018600080000895E0919000EF77E0939000089554
:10187000E091C000EF77E093C0000895E091C200CE
:10188000E77FE093C2000895F89484B7877F84BF10
:10189000809160008061809360001092600080E21F
:1018A0009EE40197F1F781E08093E00080E280936D
:1018B000D80080E69AEE0197F1F7ECDE0C94003F39
:1018C000FFCFF894E7DE80E69AEE0197F1F70C94EB
:1018D0000000FFCF8F938FB78F938091C0018D5FF2
:1018E0008D37D0F48093C0018091C1018F5F8093C8
:1018F000C101D8F08091C2018F4F8093C201A8F03E
:101900008091C3018F4F8093C30178F08091C4010F
:101910008F4F8093C40109C08D578093C00180917F
:10192000C1018E5F8093C10128F78091C5018C5F52
:101930008093C50158F08091C6018F4F8093C601F6
:1019400028F08091C7018F4F8093C7018F918FBF7F
:101950008F911895CF92DF92EF92FF926B017C01ED
:1019600019D09B01C114D104E104F10429F4FF90C2
:10197000EF90DF90CF9008950DD0621B730B683EFF
:10198000734080F381E0C81AD108E108F1082851BA
:101990003C4FE8CF0FB6F89466B515B27091C5010B
:1019A0008091C6019091C7010FBE10FE05C06F3F28
:1019B00019F07C5F8F4F9F4F11240024660F001C8D
:1019C000660F001C702908958091E80080FFFCCF0D
:1019D00008958091D80087FF02C085FF87C081E00D
:1019E0008093D70080EA8093D80082E189BD09B452
:1019F00000FEFDCF80E98093D8001092E0001092A5
:101A000098021092970210929602E7E8F2E0119283
:101A100082E0E639F807D9F781E0809386028DE706
:101A200080938502109284021092830210926A02BF
:101A300010926B0210926C0210926D024FE0409374
:101A40006E0290E290936F0280E880937002109291
:101A5000710232E03093720228E020937302909377
:101A6000740280937502109276021092770210929F
:101A700078021092790240937A0290937B028093CD
:101A80007C0210927D0230937E0220937F0290931D
:101A9000800280938102109262021092630210927F
:101AA0006402109265021092660210926702109210
:101AB00068021092690210925B0210925A02109210
:101AC0005D0210925C0210925F0210925E02109210
:101AD0006102109260021092570210925802109206
:101AE00059021092E1008CE08093E20008951F9269
:101AF0000F920FB60F9211242F933F938F939F93C2
:101B0000EF93FF939091E1001092E10093FF0FC0DB
:101B10001092E90081E08093EB001092EC0082E3E8
:101B20008093ED0088E08093F0001092980292FF7D
:101B300041C0809198028823E9F180919602882320
:101B400079F081508093960281110AC081E08093E0
:101B5000E9008091E80085FD59C08AE38093E800A0
:101B600080918502882331F18091C9018F5F809334
:101B7000C9018370F9F483E08093E9008091E80063
:101B800085FF18C0809184028F5F8093840220912A
:101B9000850282130FC010928402E7E8F2E026E982
:101BA00032E081918093F1002E173F07D1F78AE34D
:101BB0008093E80090FF0CC080E18093E2001092D7
:101BC000980281E08093970280EA8093D80019BC44
:101BD00080919702882379F094FF0DC082E189BD3E
:101BE00009B400FEFDCF80E98093D8008DE080939A
:101BF000E20010929702FF91EF919F918F913F9198
:101C00002F910F900FBE0F901F9018951092F1001A
:101C1000A0CF1F920F920FB60F921124EF92FF9256
:101C20000F931F932F933F934F935F936F937F93E4
:101C30008F939F93AF93BF93CF93DF93EF93FF93D4
:101C40001092E9008091E80083FF21C0D091F1005B
:101C5000C091F1000091F1001091F100E090F100CD
:101C6000F090F1002091F1003091F10082EF80932B
:101C7000E800C63009F05AC08EE0EEEDF0E0459184
:101C800055910417150739F035968150C1F781E257
:101C90008093EB002BC045915591E416F50611F0A9
:101CA0003396F3CF4591559184912F3F310519F02B
:101CB00010F02FEF30E0821708F4282F3EEF8091CC
:101CC000E800982F9570D9F382FD10C0822F21343F
:101CD00008F080E4982F911122C0922F981B892F31
:101CE0003093E800911119C02034B8F4FF91EF91BE
:101CF000DF91CF91BF91AF919F918F917F916F9124
:101D00005F914F913F912F911F910F91FF90EF9015
:101D10000F900FBE0F901F901895282FD0CFFA016B
:101D200045914093F100AF019150D5CFC53041F4BA
:101D30008EEF8093E80048DE00680093E300D6CF82
:101D4000C93001F5D11162C0009398021092960239
:101D50008EEF8093E80081E0E5E3F3E021E08093FB
:101D6000E9002093EB0095919093EC00959190936E
:101D7000ED008F5F873099F78EE18093EA00109233
:101D8000EA00B4CFC83049F4D03809F03FC01CDEB7
:101D9000809198028093F10012C0C11114C014DE2A
:101DA000D23849F4E092E900C091EB00C5FBCC27A2
:101DB000C0F91092E900C093F1001092F1008EEF8B
:101DC0008093E80093CF8C2F8D7F8130F9F4D2304F
:101DD000E9F40115110509F0F0C04E2D4F778FEF92
:101DE000840F873008F0E9C08EEF8093E8004093BD
:101DF000E900C33009F44BCF89E18093EB0081E027
:101E000090E001C0880F4A95EAF7B7CFE114F104DA
:101E100009F0D6C0D13AD9F4C13061F4D5DDE7E894
:101E2000F2E086E992E021912093F1008E179F075E
:101E3000D1F7C5CFC23021F4C7DD80918502AACF8A
:101E4000C33009F024CFC0DD80918602A3CFD13208
:101E500009F0A8C0C93061F48091E80082FFFCCF8E
:101E60008091F100809383028BEF8093E800A7CFED
:101E7000CA3029F41093850210928402A0CFCB308F
:101E800009F005CF009386029ACF91E0E916F1049C
:101E900091F4D13A09F086C0C13009F0F8CE94DD52
:101EA000E6E7F2E082E892E021912093F1008E17BC
:101EB0009F07D1F784CF84E0E816F10491F4D13A7A
:101EC00009F070C0C13009F0E2CE7EDDE2E6F2E05A
:101ED0008AE692E021912093F1008E179F07D1F7B7
:101EE0006ECF92E0E916F10409F05CC0C13011F543
:101EF0003EEFD13A09F0CBCE8091E800982F957053
:101F0000D9F382FDF3CE822F213408F080E4982F9C
:101F100091110CC0922F981B892F3093E8009111DA
:101F200003C0203408F4E2CE282FE6CF1092F1004F
:101F30009150EECFC930B1F5D13209F0A8CE0115DC
:101F4000134009F0A4CE2430310509F0A0CE8091D1
:101F5000E80082FFFCCF3091F1002091F1009091D8
:101F6000F1008091F1004BEF4093E8004EEF409379
:101F7000E800393A51F4253409F089CE923C09F051
:101F800086CE8B3609F083CE7FDC3B3809F07FCEDE
:101F9000253C09F07CCE9D3109F079CE803709F0DF
:101FA00076CE8FDCC93C09F072CED03409F06FCE0A
:101FB0008EEF8093E80008DDF4CFE114F10491F393
:101FC00083E0E816F10409F060CFD13A59F7C13047
:101FD00009F05DCEF9DCEAE6F2E086E792E02191D5
:101FE0002093F1008E179F07D1F7E9CE5091FE01A3
:101FF0004091FD01852F90E0242F30E0541718F018
:10200000821B930B0895805C9F4FFACF5091FE0185
:102010004091FD01252F30E0842F90E0821B930B2F
:10202000541710F087960895019708958091FE0146
:10203000E091FD018E1751F0EF5FE03408F0E0E031
:10204000F0E0E150FE4F808190E008958FEF9FEF28
:1020500008959091FE018091FD01981779F090917B
:10206000FD019F5F903408F090E0E92FF0E0E1502F
:10207000FE4F80819093FD0190E008958FEF9FEFD8
:1020800008958091D2018111FCCF08952091C9005B
:1020900023FD06C021E0FC01228390E080E008954A
:1020A000809106018F3F41F08091D201811104C0DF
:1020B000E0910601F0E04FDB9091D4018091D301D3
:1020C000981304C08091C80085FD19C08091D40187
:1020D0008F5F8832F8F49091D3019817E1F3E82FDD
:1020E000F0E0EB52FE4F608391E09093D201809339
:1020F000D4018091C90080628093C90008C08FB765
:10210000F8946093CE0091E09093D2018FBF81E06C
:1021100090E0089580E0DFCF1F93CF93DF93EB0132
:10212000142F409306014F3F29F0842F03DBE12F4A
:10213000F0E017DBC0FF24C0C13080E1D80700F514
:1021400082E08093C8002197D093CD00C093CC004B
:102150008091C90083FD10C01092FE011092FD0114
:102160001092D4011092D3011092D20186E0809394
:10217000CA0088ED8093C900DF91CF911F91089527
:102180001092C800D695C795DECF1F920F920FB65A
:102190000F9211242F938F939F93EF93FF9390911E
:1021A000CE008091FE018F5F803408F080E02091A6
:1021B000FD01281739F0E82FF0E0E150FE4F908341
:1021C0008093FE01FF91EF919F918F912F910F903E
:1021D0000FBE0F901F9018951F920F920FB60F927F
:1021E00011248F939F93EF93FF939091D40180914B
:1021F000D30198130EC08091C9008F7D8093C900D0
:10220000FF91EF919F918F910F900FBE0F901F90B4
:1022100018958091D3018F5F883208F080E0E82F15
:10222000F0E0EB52FE4F90819093CE008093D3016B
:10223000E7CF1F920F920FB60F9211248F93EF9357
:10224000FF931092D201809106018F3F21F0E0911F
:102250000601F0E086DAFF91EF918F910F900FBEAB
:102260000F901F901895EAECF1E0128288EE93E04F
:10227000A0E0B0E083839483A583B68317828FE7C1
:1022800091E0918380830895CF92DF92EF92FF9245
:102290000F931F93CF93DF936C01EB017B01E40E4F
:1022A000F51E10E000E0CE15DF0561F06991D60162
:1022B000ED91FC910190F081E02DC6010995080F88
:1022C000191FF1CFC801DF91CF911F910F91FF909E
:1022D000EF90DF90CF900895CF93DF9300D0CDB7EC
:1022E000DEB72DE029832AE02A83DC01ED91FC9101
:1022F0000280F381E02D42E050E0BE016F5F7F4F2E
:1023000009950F900F90DF91CF910895CF93DF93B0
:10231000CDB7DEB72B970FB6F894DEBF0FBECDBF9B
:10232000FE013C96A3E34A9F44270A0E411D302D2F
:102330005A9F5527400D511D6A9F6627500D611DFC
:102340007A9F7727600D711D1124340F451F561F8A
:10235000671F711D350F461F571F611D711D370FF8
:10236000411D511D611D711D7695679557954795C6
:102370003795AAE03A9F312D1124DF01305D3E935D
:10238000411551056105710509F5222341F0BD0193
:10239000615071092DE2DB012C93DF011297AE0130
:1023A0004A1B5B0B445F5F4FFC0120813181F901C7
:1023B00022813381BD01F90109952B960FB6F8945E
:1023C000DEBF0FBECDBFDF91CF910895FD01AACF33
:1023D00020E077FF08C070956095509541955F4F5C
:1023E0006F4F7F4F21E092CFCF93DF93CDB7DEB712
:1023F00028970FB6F894DEBF0FBECDBFDC019E015B
:10240000275F3F4F942F9F709A3038F5905DF90108
:1024100092939F0184E076956795579547958A95A5
:10242000D1F7411551056105710561F7AE014E1BEC
:102430005F0B475F5F4FED91FC9111970280F38135
:10244000E02DB901CD01099528960FB6F894DEBFAD
:102450000FBECDBFDF91CF910895995CD8CFCF93B8
:10246000DF93CDB7DEB7A0970FB6F894DEBF0FBEEF
:10247000CDBFDC019E012F5D3F4F942F9170905D89
:10248000F90192939F017695679557954795411568
:1024900051056105710589F7AE014E1B5F0B4F5D5C
:1024A0005F4FED91FC9111970280F381E02DB9010E
:1024B000CD010995A0960FB6F894DEBF0FBECDBF33
:1024C000DF91CF9108958F929F92AF92BF92CF925A
:1024D000DF92EF92FF920F931F93CF93DF93CDB7CD
:1024E000DEB765970FB6F894DEBF0FBECDBF6C01A7
:1024F000142FE52FCB01022F7E0126E1E20EF11C05
:10250000802E912CB12CA12C612F7E2FA50194013E
:102510005FD2029F101911241A3060F5105DD701A7
:102520001E937D01122FE32FCA01232B242B252B71
:1025300059F7AE014A1B5B0B4A5E5F4FD601ED9126
:10254000FC910280F381E02DB701C60109956596E3
:102550000FB6F894DEBF0FBECDBFDF91CF911F91B4
:102560000F91FF90EF90DF90CF90BF90AF909F9032
:102570008F900895195CD3CFAED80E94210A0E9493
:10258000660AFDCF80919802882371F08FB7F89486
:1025900092E09093E9009BE62091E80025FF03C0BC
:1025A0009093E800F9CF8FBF109254020895FC0178
:1025B00080919802882369F19FB7F89481E0809315
:1025C000E9002091E400275E3091E80035FD0EC05F
:1025D0009FBF9091E4009217E1F0909198029923A7
:1025E000C1F09FB7F8948093E900EECF6093F100BB
:1025F0008091E80085FD09C08AE38093E80010928D
:1026000096029FBF81E090E0089584E08093960257
:10261000F8CF81E0828390E080E00895E7E8F2E07F
:102620008081682B60830895E7E8F2E0862F80952B
:102630006081682360830895262F277080E1860FCC
:10264000883068F481E090E001C0880F2A95EAF7AD
:1026500080959091870289238093870208956695DB
:10266000669566956F3078F46F5FE62FF0E0E95776
:10267000FD4F81E090E001C0880F2A95EAF7809530
:102680009081892380830895262F277080E1860F0B
:10269000883070F481E090E0AC0102C0440F551F17
:1026A0002A95E2F780918702842B80938702089510
:1026B0006695669566956F3080F46F5FE62FF0E063
:1026C000E957FD4F81E090E0AC0102C0440F551F77
:1026D0002A95E2F78081842B808308958091980267
:1026E000882351F18FB7F89493E09093E90090918B
:1026F000E4009E5C23E03091E80035FD0EC08FBF02
:10270000809198028823C1F08091E4008917A1F09C
:102710008FB7F8942093E900EECFE7E8F2E09191CB
:102720009093F10092E0E739F907C9F79AE39093A3
:10273000E800109284028FBF0895FC0180919802F6
:10274000882309F468C08FB7F89491819093E900C9
:102750009091E4009E5C2091E80025FD11C08FBFA0
:1027600080919802882309F456C08091E40089176B
:1027700009F451C08FB7F89421812093E900EBCF81
:10278000A381B4819C919093F100A381B4811196AF
:102790009C919093F100A381B48112969C919093A7
:1027A000F100A381B48113969C919093F100A381D1
:1027B000B48114969C919093F100A381B4811596F5
:1027C0009C919093F100A381B48116969C91909373
:1027D000F100A381B48117969C919093F100A3819D
:1027E000B48118969C919093F100A381B4811996BD
:1027F0009C919093F100A381B4811A969C9190933F
:10280000F1000380F481E02D93859093F1009AE329
:102810009093E8008FBF0895DCD80FB6F8948091AC
:10282000C1019091C201A091C301B091C4010FBE3A
:102830009C0180919802882329F068EC70E080E088
:1028400090E088C880919702882301F10FB6F89430
:102850004091C1015091C2016091C3017091C401C6
:102860000FBE80919702882389F00FB6F89480916B
:10287000C1019091C201A091C301B091C4010FBEEA
:10288000841B950B8B3F910560F308950FB6F89468
:102890008091C1019091C201A091C301B091C40186
:1028A0000FBE821B930B853C994008F4C2CF08955C
:1028B0009FB7F89480919802811102C09FBF08953C
:1028C00082E08093E9002BE68091E80085FD03C05B
:1028D0009FBF80E008958091F100811103C0209393
:1028E000E800F2CF2091E80025FDE8CF2BE6209309
:1028F000E800E4CF20915402211105C0D9DF8823DC
:1029000029F08093540281E090E0089590E080E007
:1029100008959C0190915402992329F01092540239
:10292000892F90E00895C901C3DF8111FACF8FEF9D
:102930009FEF08959C0190915402892F911106C038
:10294000C901B6DF882321F08093540290E00895F6
:102950008FEF9FEF0895ECE4F2E0128288EE93E0AF
:10296000A0E0B0E083839483A583B683178281E9D6
:1029700091E091838083E5E4F2E0158283E0828335
:1029800084E0818380E180832AE632E034832383FC
:10299000EFE3F2E0158291E0928395E091838083EA
:1029A00086E792E094838383089597FB072E16F4BD
:1029B000009406D077FD08D033D007FC05D03EF454
:1029C000909581959F4F0895709561957F4F0895DB
:1029D000A1E21A2EAA1BBB1BFD010DC0AA1FBB1F23
:1029E000EE1FFF1FA217B307E407F50720F0A21B95
:1029F000B30BE40BF50B661F771F881F991F1A9402
:102A000069F760957095809590959B01AC01BD012B
:102A1000CF010895EE0FFF1F0590F491E02D09946A
:102A2000AA1BBB1B51E107C0AA1FBB1FA617B707F4
:102A300010F0A61BB70B881F991F5A95A9F7809510
:0C2A40009095BC01CD010895F894FFCFE3
:102A4C00000099028000FF20020221022204416E44
:102A5C00616C6F6769717565206163746976650077
:102A6C004D6972726F72696E672061637469766505
:102A7C000046756C6C204A6F79737469636B2061C6
:102A8C00637469766500524553455400526563651D
:102A9C00697665643A204530203020004144445228
:102AAC000052455100434D44004A565300434D5388
:102ABC0000434150005374617274000000000046E2
:102ACC0010441106104110F60F29101610000000CA
:102ADC0000D71244111E0AC2127A1489149A1400D7
:00000001FF
